{
  "contractName": "Ballot",
  "abi": [
    {
      "inputs": [],
      "stateMutability": "nonpayable",
      "type": "constructor"
    },
    {
      "inputs": [],
      "name": "chairperson",
      "outputs": [
        {
          "internalType": "address",
          "name": "",
          "type": "address"
        }
      ],
      "stateMutability": "view",
      "type": "function"
    },
    {
      "inputs": [
        {
          "internalType": "uint256",
          "name": "",
          "type": "uint256"
        }
      ],
      "name": "proposals",
      "outputs": [
        {
          "internalType": "bytes",
          "name": "name",
          "type": "bytes"
        },
        {
          "internalType": "uint256",
          "name": "voteCount",
          "type": "uint256"
        }
      ],
      "stateMutability": "view",
      "type": "function"
    },
    {
      "inputs": [
        {
          "internalType": "address",
          "name": "",
          "type": "address"
        }
      ],
      "name": "voters",
      "outputs": [
        {
          "internalType": "uint256",
          "name": "weight",
          "type": "uint256"
        },
        {
          "internalType": "bool",
          "name": "hasVoted",
          "type": "bool"
        },
        {
          "internalType": "address",
          "name": "delegate",
          "type": "address"
        },
        {
          "internalType": "uint256",
          "name": "vote",
          "type": "uint256"
        }
      ],
      "stateMutability": "view",
      "type": "function"
    },
    {
      "inputs": [
        {
          "internalType": "address",
          "name": "_voter",
          "type": "address"
        }
      ],
      "name": "giveRightToVote",
      "outputs": [],
      "stateMutability": "nonpayable",
      "type": "function"
    },
    {
      "inputs": [
        {
          "internalType": "address",
          "name": "_to",
          "type": "address"
        }
      ],
      "name": "delegate",
      "outputs": [],
      "stateMutability": "nonpayable",
      "type": "function"
    },
    {
      "inputs": [],
      "name": "withdrawDelegation",
      "outputs": [],
      "stateMutability": "nonpayable",
      "type": "function"
    },
    {
      "inputs": [
        {
          "internalType": "uint256",
          "name": "_proposalIndex",
          "type": "uint256"
        }
      ],
      "name": "vote",
      "outputs": [],
      "stateMutability": "nonpayable",
      "type": "function"
    },
    {
      "inputs": [
        {
          "internalType": "string",
          "name": "_name",
          "type": "string"
        }
      ],
      "name": "addProposal",
      "outputs": [],
      "stateMutability": "nonpayable",
      "type": "function"
    },
    {
      "inputs": [],
      "name": "winningProposal",
      "outputs": [
        {
          "internalType": "uint256",
          "name": "winningProposal_",
          "type": "uint256"
        }
      ],
      "stateMutability": "view",
      "type": "function"
    },
    {
      "inputs": [],
      "name": "winningProposalName",
      "outputs": [
        {
          "internalType": "bytes",
          "name": "winningProposalName_",
          "type": "bytes"
        }
      ],
      "stateMutability": "view",
      "type": "function"
    },
    {
      "inputs": [
        {
          "internalType": "string[]",
          "name": "_names",
          "type": "string[]"
        }
      ],
      "name": "addProposals",
      "outputs": [],
      "stateMutability": "nonpayable",
      "type": "function"
    }
  ],
  "bytecode": "0x608060405234801561000f575f80fd5b50335f806101000a81548173ffffffffffffffffffffffffffffffffffffffff021916908373ffffffffffffffffffffffffffffffffffffffff1602179055506001805f805f9054906101000a900473ffffffffffffffffffffffffffffffffffffffff1673ffffffffffffffffffffffffffffffffffffffff1673ffffffffffffffffffffffffffffffffffffffff1681526020019081526020015f205f0181905550611b91806100c05f395ff3fe608060405234801561000f575f80fd5b50600436106100a7575f3560e01c80632eba34ac1161006f5780632eba34ac1461013c5780632fdae3c51461015a5780635c19a95c14610176578063609ff1bd146101925780639e7b8d61146101b0578063a3ec138d146101cc576100a7565b80630121b93f146100ab578063013cf08b146100c757806303879e7c146100f857806316bfdd81146101145780632e4176cf1461011e575b5f80fd5b6100c560048036038101906100c09190610e4e565b6101ff565b005b6100e160048036038101906100dc9190610e4e565b610392565b6040516100ef929190610f12565b60405180910390f35b610112600480360381019061010d919061114e565b610447565b005b61011c610572565b005b6101266107c4565b60405161013391906111d4565b60405180910390f35b6101446107e7565b60405161015191906111ed565b60405180910390f35b610174600480360381019061016f919061120d565b61089e565b005b610190600480360381019061018b919061127e565b610903565b005b61019a610b4f565b6040516101a791906112a9565b60405180910390f35b6101ca60048036038101906101c5919061127e565b610bd0565b005b6101e660048036038101906101e1919061127e565b610db2565b6040516101f694939291906112dc565b60405180910390f35b5f66022acab150200090505f60015f3373ffffffffffffffffffffffffffffffffffffffff1673ffffffffffffffffffffffffffffffffffffffff1681526020019081526020015f2090505f815f01541161028f576040517f08c379a000000000000000000000000000000000000000000000000000000000815260040161028690611379565b60405180910390fd5b806001015f9054906101000a900460ff16156102e0576040517f08c379a00000000000000000000000000000000000000000000000000000000081526004016102d7906113e1565b60405180910390fd5b828160020181905550805f015460028481548110610301576103006113ff565b5b905f5260205f2090600202016001015f82825461031e9190611459565b925050819055505f815f01819055506001816001015f6101000a81548160ff021916908315150217905550503373ffffffffffffffffffffffffffffffffffffffff166108fc8290811502906040515f60405180830381858888f1935050505015801561038d573d5f803e3d5ffd5b505050565b600281815481106103a1575f80fd5b905f5260205f2090600202015f91509050805f0180546103c0906114b9565b80601f01602080910402602001604051908101604052809291908181526020018280546103ec906114b9565b80156104375780601f1061040e57610100808354040283529160200191610437565b820191905f5260205f20905b81548152906001019060200180831161041a57829003601f168201915b5050505050908060010154905082565b5f8054906101000a900473ffffffffffffffffffffffffffffffffffffffff1673ffffffffffffffffffffffffffffffffffffffff163373ffffffffffffffffffffffffffffffffffffffff16146104d4576040517f08c379a00000000000000000000000000000000000000000000000000000000081526004016104cb90611559565b60405180910390fd5b5f5b815181101561056e575f8282815181106104f3576104f26113ff565b5b60200260200101519050600260405180604001604052808381526020015f815250908060018154018082558091505060019003905f5260205f2090600202015f909190919091505f820151815f01908161054d9190611714565b50602082015181600101555050508080610566906117e3565b9150506104d6565b5050565b5f60015f3373ffffffffffffffffffffffffffffffffffffffff1673ffffffffffffffffffffffffffffffffffffffff1681526020019081526020015f2090505f815f0154116105f7576040517f08c379a00000000000000000000000000000000000000000000000000000000081526004016105ee90611874565b60405180910390fd5b806001015f9054906101000a900460ff1615610648576040517f08c379a000000000000000000000000000000000000000000000000000000000815260040161063f906118dc565b60405180910390fd5b5f8160010160019054906101000a900473ffffffffffffffffffffffffffffffffffffffff1690503373ffffffffffffffffffffffffffffffffffffffff168173ffffffffffffffffffffffffffffffffffffffff16036106de576040517f08c379a00000000000000000000000000000000000000000000000000000000081526004016106d59061196a565b60405180910390fd5b60015f8273ffffffffffffffffffffffffffffffffffffffff1673ffffffffffffffffffffffffffffffffffffffff1681526020019081526020015f205f0154825f0181905550815f015460015f8373ffffffffffffffffffffffffffffffffffffffff1673ffffffffffffffffffffffffffffffffffffffff1681526020019081526020015f205f015f8282546107769190611988565b925050819055505f8260010160016101000a81548173ffffffffffffffffffffffffffffffffffffffff021916908373ffffffffffffffffffffffffffffffffffffffff1602179055505050565b5f8054906101000a900473ffffffffffffffffffffffffffffffffffffffff1681565b606060026107f3610b4f565b81548110610804576108036113ff565b5b905f5260205f2090600202015f01805461081d906114b9565b80601f0160208091040260200160405190810160405280929190818152602001828054610849906114b9565b80156108945780601f1061086b57610100808354040283529160200191610894565b820191905f5260205f20905b81548152906001019060200180831161087757829003601f168201915b5050505050905090565b5f819050600260405180604001604052808381526020015f815250908060018154018082558091505060019003905f5260205f2090600202015f909190919091505f820151815f0190816108f29190611714565b506020820151816001015550505050565b5f60015f3373ffffffffffffffffffffffffffffffffffffffff1673ffffffffffffffffffffffffffffffffffffffff1681526020019081526020015f2090505f815f015411610988576040517f08c379a000000000000000000000000000000000000000000000000000000000815260040161097f90611874565b60405180910390fd5b806001015f9054906101000a900460ff16156109d9576040517f08c379a00000000000000000000000000000000000000000000000000000000081526004016109d0906118dc565b60405180910390fd5b3373ffffffffffffffffffffffffffffffffffffffff168273ffffffffffffffffffffffffffffffffffffffff1603610a47576040517f08c379a0000000000000000000000000000000000000000000000000000000008152600401610a3e90611a05565b60405180910390fd5b818160010160016101000a81548173ffffffffffffffffffffffffffffffffffffffff021916908373ffffffffffffffffffffffffffffffffffffffff1602179055505f60015f8473ffffffffffffffffffffffffffffffffffffffff1673ffffffffffffffffffffffffffffffffffffffff1681526020019081526020015f209050806001015f9054906101000a900460ff1615610b2557815f01546002826002015481548110610afc57610afb6113ff565b5b905f5260205f2090600202016001015f828254610b199190611459565b92505081905550610b42565b815f0154815f015f828254610b3a9190611459565b925050819055505b5f825f0181905550505050565b5f805f90505f5b600280549050811015610bcb578160028281548110610b7857610b776113ff565b5b905f5260205f209060020201600101541115610bb85760028181548110610ba257610ba16113ff565b5b905f5260205f2090600202016001015491508092505b8080610bc3906117e3565b915050610b56565b505090565b5f8054906101000a900473ffffffffffffffffffffffffffffffffffffffff1673ffffffffffffffffffffffffffffffffffffffff163373ffffffffffffffffffffffffffffffffffffffff1614610c5d576040517f08c379a0000000000000000000000000000000000000000000000000000000008152600401610c5490611a6d565b60405180910390fd5b60015f8273ffffffffffffffffffffffffffffffffffffffff1673ffffffffffffffffffffffffffffffffffffffff1681526020019081526020015f206001015f9054906101000a900460ff1615610cea576040517f08c379a0000000000000000000000000000000000000000000000000000000008152600401610ce190611ad5565b60405180910390fd5b5f60015f8373ffffffffffffffffffffffffffffffffffffffff1673ffffffffffffffffffffffffffffffffffffffff1681526020019081526020015f205f015414610d6b576040517f08c379a0000000000000000000000000000000000000000000000000000000008152600401610d6290611b3d565b60405180910390fd5b6001805f8373ffffffffffffffffffffffffffffffffffffffff1673ffffffffffffffffffffffffffffffffffffffff1681526020019081526020015f205f018190555050565b6001602052805f5260405f205f91509050805f015490806001015f9054906101000a900460ff16908060010160019054906101000a900473ffffffffffffffffffffffffffffffffffffffff16908060020154905084565b5f604051905090565b5f80fd5b5f80fd5b5f819050919050565b610e2d81610e1b565b8114610e37575f80fd5b50565b5f81359050610e4881610e24565b92915050565b5f60208284031215610e6357610e62610e13565b5b5f610e7084828501610e3a565b91505092915050565b5f81519050919050565b5f82825260208201905092915050565b5f5b83811015610eb0578082015181840152602081019050610e95565b5f8484015250505050565b5f601f19601f8301169050919050565b5f610ed582610e79565b610edf8185610e83565b9350610eef818560208601610e93565b610ef881610ebb565b840191505092915050565b610f0c81610e1b565b82525050565b5f6040820190508181035f830152610f2a8185610ecb565b9050610f396020830184610f03565b9392505050565b5f80fd5b7f4e487b71000000000000000000000000000000000000000000000000000000005f52604160045260245ffd5b610f7a82610ebb565b810181811067ffffffffffffffff82111715610f9957610f98610f44565b5b80604052505050565b5f610fab610e0a565b9050610fb78282610f71565b919050565b5f67ffffffffffffffff821115610fd657610fd5610f44565b5b602082029050602081019050919050565b5f80fd5b5f80fd5b5f67ffffffffffffffff82111561100957611008610f44565b5b61101282610ebb565b9050602081019050919050565b828183375f83830152505050565b5f61103f61103a84610fef565b610fa2565b90508281526020810184848401111561105b5761105a610feb565b5b61106684828561101f565b509392505050565b5f82601f83011261108257611081610f40565b5b813561109284826020860161102d565b91505092915050565b5f6110ad6110a884610fbc565b610fa2565b905080838252602082019050602084028301858111156110d0576110cf610fe7565b5b835b8181101561111757803567ffffffffffffffff8111156110f5576110f4610f40565b5b808601611102898261106e565b855260208501945050506020810190506110d2565b5050509392505050565b5f82601f83011261113557611134610f40565b5b813561114584826020860161109b565b91505092915050565b5f6020828403121561116357611162610e13565b5b5f82013567ffffffffffffffff8111156111805761117f610e17565b5b61118c84828501611121565b91505092915050565b5f73ffffffffffffffffffffffffffffffffffffffff82169050919050565b5f6111be82611195565b9050919050565b6111ce816111b4565b82525050565b5f6020820190506111e75f8301846111c5565b92915050565b5f6020820190508181035f8301526112058184610ecb565b905092915050565b5f6020828403121561122257611221610e13565b5b5f82013567ffffffffffffffff81111561123f5761123e610e17565b5b61124b8482850161106e565b91505092915050565b61125d816111b4565b8114611267575f80fd5b50565b5f8135905061127881611254565b92915050565b5f6020828403121561129357611292610e13565b5b5f6112a08482850161126a565b91505092915050565b5f6020820190506112bc5f830184610f03565b92915050565b5f8115159050919050565b6112d6816112c2565b82525050565b5f6080820190506112ef5f830187610f03565b6112fc60208301866112cd565b61130960408301856111c5565b6113166060830184610f03565b95945050505050565b5f82825260208201905092915050565b7f766f74657220686173206e6f20726967687420746f20766f74650000000000005f82015250565b5f611363601a8361131f565b915061136e8261132f565b602082019050919050565b5f6020820190508181035f83015261139081611357565b9050919050565b7f766f7465722068617320616c726561647920766f7465640000000000000000005f82015250565b5f6113cb60178361131f565b91506113d682611397565b602082019050919050565b5f6020820190508181035f8301526113f8816113bf565b9050919050565b7f4e487b71000000000000000000000000000000000000000000000000000000005f52603260045260245ffd5b7f4e487b71000000000000000000000000000000000000000000000000000000005f52601160045260245ffd5b5f61146382610e1b565b915061146e83610e1b565b92508282019050808211156114865761148561142c565b5b92915050565b7f4e487b71000000000000000000000000000000000000000000000000000000005f52602260045260245ffd5b5f60028204905060018216806114d057607f821691505b6020821081036114e3576114e261148c565b5b50919050565b7f4f6e6c79206368616972706572736f6e2063616e206164642070726f706f73615f8201527f6c73000000000000000000000000000000000000000000000000000000000000602082015250565b5f61154360228361131f565b915061154e826114e9565b604082019050919050565b5f6020820190508181035f83015261157081611537565b9050919050565b5f819050815f5260205f209050919050565b5f6020601f8301049050919050565b5f82821b905092915050565b5f600883026115d37fffffffffffffffffffffffffffffffffffffffffffffffffffffffffffffffff82611598565b6115dd8683611598565b95508019841693508086168417925050509392505050565b5f819050919050565b5f61161861161361160e84610e1b565b6115f5565b610e1b565b9050919050565b5f819050919050565b611631836115fe565b61164561163d8261161f565b8484546115a4565b825550505050565b5f90565b61165961164d565b611664818484611628565b505050565b5b818110156116875761167c5f82611651565b60018101905061166a565b5050565b601f8211156116cc5761169d81611577565b6116a684611589565b810160208510156116b5578190505b6116c96116c185611589565b830182611669565b50505b505050565b5f82821c905092915050565b5f6116ec5f19846008026116d1565b1980831691505092915050565b5f61170483836116dd565b9150826002028217905092915050565b61171d82610e79565b67ffffffffffffffff81111561173657611735610f44565b5b61174082546114b9565b61174b82828561168b565b5f60209050601f83116001811461177c575f841561176a578287015190505b61177485826116f9565b8655506117db565b601f19841661178a86611577565b5f5b828110156117b15784890151825560018201915060208501945060208101905061178c565b868310156117ce57848901516117ca601f8916826116dd565b8355505b6001600288020188555050505b505050505050565b5f6117ed82610e1b565b91507fffffffffffffffffffffffffffffffffffffffffffffffffffffffffffffffff820361181f5761181e61142c565b5b600182019050919050565b7f73656e64657220646f65736e74206861766520766f74696e67207269676874735f82015250565b5f61185e60208361131f565b91506118698261182a565b602082019050919050565b5f6020820190508181035f83015261188b81611852565b9050919050565b7f73656e6465722068617320616c726561647920766f74656400000000000000005f82015250565b5f6118c660188361131f565b91506118d182611892565b602082019050919050565b5f6020820190508181035f8301526118f3816118ba565b9050919050565b7f73656c662064652d64656c65676174696e672069736e277420616c6c6f7765645f8201527f2121210000000000000000000000000000000000000000000000000000000000602082015250565b5f61195460238361131f565b915061195f826118fa565b604082019050919050565b5f6020820190508181035f83015261198181611948565b9050919050565b5f61199282610e1b565b915061199d83610e1b565b92508282039050818111156119b5576119b461142c565b5b92915050565b7f73656c662064656c65676174696e672069736e277420616c6c6f7765642121215f82015250565b5f6119ef60208361131f565b91506119fa826119bb565b602082019050919050565b5f6020820190508181035f830152611a1c816119e3565b9050919050565b7f4f6e6c79206368616972706572736f6e206861732061636365737300000000005f82015250565b5f611a57601b8361131f565b9150611a6282611a23565b602082019050919050565b5f6020820190508181035f830152611a8481611a4b565b9050919050565b7f54686520766f74657220616c726561647920766f7465640000000000000000005f82015250565b5f611abf60178361131f565b9150611aca82611a8b565b602082019050919050565b5f6020820190508181035f830152611aec81611ab3565b9050919050565b7f566f7465722063616e277420766f7465000000000000000000000000000000005f82015250565b5f611b2760108361131f565b9150611b3282611af3565b602082019050919050565b5f6020820190508181035f830152611b5481611b1b565b905091905056fea26469706673582212203d29ff63ab1ae97f55d379a72c79b0eed39c45de232678c1bb1bd7cdf8275e7364736f6c63430008150033",
  "immutableReferences": {},
  "source": "// SPDX-License-Identifier: MIT\r\npragma solidity ^0.8.17;\r\n\r\n/*\r\n    Ballot Smart Contract\r\n    @Author: Web3Bridge Cohort9\r\n    @Date: 2023/08/20\r\n    @Instructions: Please add comments to each line of code explaining what the code is doing\r\n*/\r\ncontract Ballot {\r\n    struct Voter {\r\n        uint weight;\r\n        bool hasVoted;\r\n        address delegate;\r\n        uint vote;\r\n    }\r\n\r\n    struct Proposal {\r\n        bytes name;\r\n        uint voteCount;\r\n    }\r\n\r\n    address public chairperson;\r\n\r\n    mapping(address => Voter) public voters;\r\n\r\n    Proposal[] public proposals;\r\n\r\n    constructor() {\r\n        chairperson = msg.sender;\r\n        voters[chairperson].weight = 1;\r\n    }\r\n\r\n    // This modifier sends reward to the voter if they vote successfully\r\n    modifier sendReward() {\r\n        uint256 rewardAmount = 610000000000000; // 0.00061 Ether in Wei\r\n        _;\r\n        payable(msg.sender).transfer(rewardAmount);\r\n    }\r\n\r\n\r\n    function giveRightToVote(address _voter) public {\r\n        require(msg.sender == chairperson, \"Only chairperson has access\"); // Verify `msg.sender` is the `chairperson`\r\n        require(!voters[_voter].hasVoted, \"The voter already voted\"); // Check if `_voter` hasn't voted\r\n        require(voters[_voter].weight == 0, \"Voter can't vote\"); // Check if `voter` doesn't have existing voting rights\r\n        voters[_voter].weight = 1; // Assign a voting weight of 1 to `_voter` and update their voting status\r\n    }\r\n\r\n    function delegate(address _to) public {\r\n        Voter storage sender = voters[msg.sender];\r\n\r\n        require(sender.weight > 0, \"sender doesnt have voting rights\"); // Require the sender to have voting rights\r\n        require(!sender.hasVoted, \"sender has already voted\"); // Require the sender hasn't voted\r\n        require(_to != msg.sender, \"self delegating isn't allowed!!!\"); // Require the sender is not self-delegating\r\n\r\n        // Adjust vote counts based on the delegate's voting status\r\n        // !sender.hasVoted; // this is not needed as it is already checked above\r\n        sender.delegate = _to; // Set the sender's delegate to the `_to` address\r\n        Voter storage delegate_ = voters[_to]; // The delegate is a voter as well.\r\n        if (delegate_.hasVoted) {\r\n            proposals[delegate_.vote].voteCount += sender.weight; // If the delegate has voted, increment the proposal's vote count directly\r\n        } else {\r\n            delegate_.weight += sender.weight; // If the delegate hasn't voted, increment the delegate's weight\r\n        }\r\n        sender.weight = 0; //reset the senders weight back to 0;\r\n    }\r\n\r\n    function withdrawDelegation() public {\r\n        Voter storage sender = voters[msg.sender];\r\n        require(sender.weight > 0, \"sender doesnt have voting rights\"); // Require the sender to have voting rights\r\n        require(!sender.hasVoted, \"sender has already voted\"); // Require the sender hasn't voted\r\n\r\n        address _to = sender.delegate; // Set the `_to` address to the sender's delegate\r\n        require(_to != msg.sender, \"self de-delegating isn't allowed!!!\"); // Require the sender is not self-de-delegating\r\n\r\n        sender.weight = voters[_to].weight; // Set the sender's weight to the delegate's weight\r\n        voters[_to].weight -= sender.weight; // reduce the delegate's weight by the sender's weight\r\n        sender.delegate = address(0); // Set the sender's delegate to 0\r\n    }\r\n\r\n    function vote(uint256 _proposalIndex) public sendReward() {\r\n        Voter storage sender = voters[msg.sender];\r\n        require(sender.weight > 0, \"voter has no right to vote\"); // Require the sender to have voting rights\r\n        require(!sender.hasVoted, \"voter has already voted\"); // Require the sender to hasn't voted\r\n\r\n        // Increment the vote count for the chosen proposal index\r\n        // Record the vote and update the sender's voting status.\r\n        sender.vote = _proposalIndex; // Set the sender's vote to the `_proposalIndex` value. This is the proposal they are voting for\r\n        proposals[_proposalIndex].voteCount += sender.weight; // Increment the proposal's vote count by the sender's weight\r\n        sender.weight = 0; // Reset the sender's weight to 0 to prevent double voting\r\n        sender.hasVoted = true; // Set the sender's voting status to true\r\n    }\r\n\r\n    function addProposal(string memory _name) public {\r\n        bytes memory strToBytes = bytes(_name); // typescast string to bytes\r\n        proposals.push(Proposal({name: strToBytes, voteCount: 0})); // push the created proposal to the array\r\n    }\r\n\r\n    function winningProposal() public view returns (uint winningProposal_) {\r\n        uint winningVoteCount = 0; // initialize the winning vote to zero\r\n        for (uint prop = 0; prop < proposals.length; prop++) {\r\n            // loop throught the proposal array\r\n            if (proposals[prop].voteCount > winningVoteCount) {\r\n                // check if the proposal voteCount is grater than winningVoteCount\r\n                winningVoteCount = proposals[prop].voteCount; // set the winningVoteCount equal to the proposal with highest count\r\n                winningProposal_ = prop; // return the winning voteCount\r\n            }\r\n        }\r\n    }\r\n\r\n    function winningProposalName () public view returns (bytes memory winningProposalName_) {\r\n        winningProposalName_ = proposals[winningProposal()].name; // return the winningProposal name from the winningProposal voteCount function\r\n    }\r\n    \r\n    function addProposals(string[] memory _names) public {\r\n    require(msg.sender == chairperson, \"Only chairperson can add proposals\");\r\n\r\n    for (uint i = 0; i < _names.length; i++) {\r\n        bytes memory strToBytes = bytes(_names[i]);\r\n        proposals.push(Proposal({name: strToBytes, voteCount: 0}));\r\n    }\r\n}\r\n\r\n\r\n}\r\n",
  "sourcePath": "C:\\Users\\s.ajulor.ABBEY\\Desktop\\GitHub\\PERSONAL\\smart_contracts\\truffle\\ballot.sol",
  "compiler": {
    "name": "solc",
    "version": "0.8.21+commit.d9974bed.Emscripten.clang"
  },
  "schemaVersion": "3.4.15",
  "updatedAt": "2023-08-25T16:48:48.261Z",
  "devdoc": {
    "kind": "dev",
    "methods": {},
    "version": 1
  },
  "userdoc": {
    "kind": "user",
    "methods": {},
    "version": 1
  }
}